:10108B000A390A0B0C0D0E0F10111213111518073C
:10109B00080918040506180102031800181818117E
:1010AB0027181818181818181818181818181818A6
:0210BB00181803
:10111E00E4F54C7427254CF87618E4F512054CE5E9
:05112E004CB409EF22A2
:1010DA00E512C39408500FE55164016009051274C2
:1010EA002F2512F8A607E512C39408500FE551B44C
:0D10FA00010A742F2512F8A6077551022275
:10000E001211077F151210DA0F1210DA0F1210DA12
:10001E001210DAE4FF1210DA7F2C7E011211331265
:10002E00111EE4F50DF50CF50BF50AF514F5387FF8
:10003E00141210DA7F327E001211337F141210DA8E
:10004E007F327E001211337F141210DA7F327E005F
:10005E001211337F141210DA7F327E001211337FA9
:10006E00141210DA7F327E001211337F141210DA5E
:10007E007F327E001211337F141210DA7F327E002F
:10008E001211337F141210DA7F327E0012113312E6
:10009E00111EE4F50DF50CF50BF50AF514F53812F5
:1000AE00102A8F4AE54AB4011412111EE4F50DF51B
:1000BE000CF50BF50AF551F543F538F526120CE162
:1000CE008F45E54560D9E514B4011212111EE4F511
:1000DE000DF50CF50BF50AF514F538F526754C01F2
:1000EE0074152545F8E6654C705EE526640160588A
:1000FE00AF4C1210DAAF0DAE0CAD0BAC0AE4FBFA3E
:10010E00792078411209168F0D8E0C8D0B8C0AAB4F
:10011E000DAA0CA90BA80AC000C001C002C003742E
:10012E00152545F8E6FCE4120B3FD003D002D001B2
:10013E00D0001208258F0D8E0C8D0B8C0AE543B462
:10014E000103754302E4F526054CE54CC3940A40C1
:10015E008F74152545F8E67070E5266401606AE433
:10016E00FF1210DAAF0DAE0CAD0BAC0AE4FBFA7950
:10017E002078411209168F0D8E0C8D0B8C0AAB0D4B
:10018E00AA0CA90BA80AC000C001C002C0037415B6
:10019E002545F8E6FCE4120B3FD003D002D001D087
:1001AE00001208258F0D8E0C8D0B8C0AE543B401C1
:1001BE0003754302E512B40103752601E543B4024B
:1001CE0008E512B40203752601E545640E701FE5BD
:1001DE005164026019E5126015755101242FF8E67D
:1001EE002439F8E6FF1210DA85124BE4F526E545C0
:1001FE00640C7029E54364026023E512701FE51458
:10020E00B4011212111EE4F50DF50CF50BF50AF5FD
:10021E0014F538F5267543017F141210DAE545649E
:10022E0004601CE54564086016E545640C6010E545
:10023E0045641060030202F8E51270030202F8E54D
:10024E0051640170030202F8E54364017003020277
:10025E00F8E513640470030202F8E51364087003F2
:10026E000202F8E513640C70030202F8E513641041
:10027E006078E551B40231E4F54CC3E512954BFFBD
:10028E00E54CC39F5022AF0DAE0CAD0BAC0A7BCD2F
:10029E007ACC79CC783D1209168F0D8E0C8D0B8C85
:1002AE000AE4F551054C80D2E543B4021DAF0DAE04
:1002BE000CAD0BAC0AE4FBFA798078BF1209168FED
:1002CE000D8E0C8D0B8C0AE4F543850D11850C10EB
:1002DE00850B0F850A0E751401E4F54C7427254C19
:1002EE00F87618054CE54CB409F2E54524F860257E
:1002FE0024FC603A24FC604F240C7062E5516401CA
:10030E00605CE54364016056E5126052E513704E81
:10031E007513048049E55164016043E5436401604F
:10032E003DE5126039E51370357513088030E551DF
:10033E006401602AE54364016024E5126020E51340
:10034E00701C75130C8017E55164016011E5436450
:10035E0001600BE5126007E5137003751310E54598
:10036E00640F60030200ADE51370030200ADE551AA
:10037E00640170030200ADE543640170030200AD39
:10038E00E51270030200ADE551B4022EE4F54CC344
:10039E00E512954BFFE54CC39F501FAF0DAE0CAD54
:1003AE000BAC0A7BCD7ACC79CC783D1209168F0D29
:1003BE008E0C8D0B8C0A054C80D5E543B4021AAF1A
:1003CE000DAE0CAD0BAC0AE4FBFA798078BF1209C6
:1003DE00168F0D8E0C8D0B8C0AE51324F8603824C5
:1003EE00FC604924FC605A240C7074E4FFFEFDFC92
:1003FE00AB0DAA0CA90BA80A120ABC6015AF11AE60
:10040E0010AD0FAC0EAB0DAA0CA90BA80A120A1F49
:10041E0080427538018048AF11AE10AD0FAC0EABF7
:10042E000DAA0CA90BA80A1209168028AF11AE103E
:10043E00AD0FAC0EAB0DAA0CA90BA80A12082180A9
:10044E0013AF11AE10AD0FAC0EAB0DAA0CA90BA8CD
:10045E000A1208258F118E108D0F8C0EE4F513E500
:10046E0038600302080212111EE4FFFEFDFCAB1100
:10047E00AA10A90FA80E120ABC501F7F141210DA70
:10048E00AF11AE10AD0FAC0EE4FBFA798078BF124F
:10049E0009168F118E108D0F8C0EAF11AE10AD0F81
:1004AE00AC0E120B738F498E488D478C467B807A2B
:1004BE009679987800120C30E47B0AFAF9F8120C4F
:1004CE0030AC00AD01AE02AF038F508E4F8D4E8C0F
:1004DE004D7F807E967D987C00AB49AA48A947A89F
:1004EE0046C3120CD04005AF501210DA7B407A4250
:1004FE00790F7800AF49AE48AD47AC46120C30E4E8
:10050E007B0AFAF9F8120C30AC00AD01AE02AF0363
:10051E008F508E4F8D4E8C4D7F407E427D0F7C00D6
:10052E00AB49AA48A947A846C3120CD04005AF5004
:10053E001210DA7BA07A8679017800AF49AE48AD09
:10054E0047AC46120C30E47B0AFAF9F8120C30ACC8
:10055E0000AD01AE02AF038F508E4F8D4E8C4D7F8E
:10056E00A07E867D017C00AB49AA48A947A846C358
:10057E00120CD04005AF501210DAE47B107A27F936
:10058E00F8AF49AE48AD47AC46120C30E47B0AFAE0
:10059E00F9F8120C30AC00AD01AE02AF038F508EE5
:1005AE004F8D4E8C4DE47F107E27FDFCAB49AA4843
:1005BE00A947A846C3120CD04005AF501210DAE47A
:1005CE007BE87A03F9F8AF49AE48AD47AC46120C5A
:1005DE0030E47B0AFAF9F8120C30AC00AD01AE0231
:1005EE00AF038F508E4F8D4E8C4DE47FE87E03FD12
:1005FE00FCAB49AA48A947A846C3120CD04005AF88
:10060E00501210DAE47B64FAF9F8AF49AE48AD4700
:10061E00AC46120C30E47B0AFAF9F8120C30AC003E
:10062E00AD01AE02AF038F508E4F8D4E8C4DE47FD9
:10063E0064FEFDFCAB49AA48A947A846C3120CD0DC
:10064E004005AF501210DAE47B0AFAF9F8AF49AE62
:10065E0048AD47AC46120C30E47B0AFAF9F8120C9E
:10066E0030AC00AD01AE02AF038F508E4F8D4E8C6D
:10067E004DE47F0AFEFDFCAB49AA48A947A846C334
:10068E00120CD04005AF501210DAE47B0AFAF9F8DA
:10069E00AF49AE48AD47AC46120C30AC00AD01AE22
:1006AE0002AF038F508E4F8D4E8C4DE47F01FEFDB9
:1006BE00FCAB49AA48A947A846C3120CD04005AFC7
:1006CE00501210DAE47F01FEFDFCAB49AA48A9479F
:1006DE00A846D3120CD05018E4FFFEFDFCAB50AA76
:1006EE004FA94EA84DC3120CD07005AF501210DAA0
:1006FE00E4FFFE7DC87C42AB11AA10A90FA80E1212
:10070E000916120B738F498E488D478C46E47B6415
:10071E00FAF9F8120C30AC00AD01AE02AF038F50F7
:10072E008E4F8D4E8C4DE47F01FEFDFCC3120CD01E
:10073E0040701512AF11AE10AD0FAC0E120B738FC1
:10074E00498E488D478C46E47B0AFAF9F8120C3034
:10075E00AC00AD01AE02AF038F508E4F8D4E8C4D5F
:10076E0074392FF8E6FF1210DAE4FFFE7D207C418B
:10077E00AB11AA10A90FA80E120916120B738F49EE
:10078E008E488D478C46E47B0AFAF9F8120C30AC91
:10079E0000AD01AE02AF038F508E4F8D4E8C4D12B9
:1007AE0010DAE4FFFE7DC87C42AB11AA10A90FA897
:1007BE000E120916120B738F498E488D478C46E424
:1007CE007B0AFAF9F8120C30AC00AD01AE02AF03A1
:1007DE008F508E4F8D4E8C4DE47F01FEFDFCC3126B
:1007EE000CD04005AF501210DA751401E4F551F536
:1007FE00430200ADE538640160030200AD12111E24
:10080E007F161210DA7F191210DA1210DA0200AD0A
:03000B00020E6A78
:100E6A00C0E0C0F0C083C082C0D075D000C000C04E
:0D0E7A0001C002C003C004C005C006C007CF
:100E8700758CFC758A660509E50970020508C39427
:100E970005E5089400407675080075090074282553
:100EA70012F8E6FD7C007F01120FBB74292512F8AA
:100EB700E6FD7C007F02120FBB742A2512F8E6FDBF
:100EC7007C007F03120FBB742B2512F8E6FD7C0014
:100ED7007F04120FBB742C2512F8E6FD7C007F05FA
:100EE700120FBB742D2512F8E6FD7C007F06120F4A
:100EF700BB742E2512F8E6FD7C007F07120FBB742A
:0D0F07002F2512F8E6FD7C007F08120FBBBD
:100F1400D007D006D005D004D003D002D001D00031
:0B0F2400D0D0D082D083D0F0D0E032DB
:10113300EF1FAC0670011E4C600A7D027CC7DCFE0B
:04114300DDFC80EC63
:011147002285
:10102A00E4F56C20B1137F14FE12113330B1FD7F49
:10103A00147E00121133756C0120B0147F147E00E7
:10104A0012113330B0FD7F147E00121133756C0219
:10105A0020B2147F147E0012113330B2FD7F147E49
:10106A0000121133756C0320B3147F147E00121121
:10107A003330B3FD7F147E00121133756C04AF6CEC
:01108A002243
:100CE100E4F56C7590FFC2932097137F14FE1211E7
:100CF100333097FD7F147E00121133756C012096FD
:100D0100147F147E001211333096FD7F147E001281
:100D11001133756C052095147F147E001211333048
:100D210095FD7F147E00121133756C092094147F98
:100D3100147E001211333094FD7F147E00121133A2
:100D4100756C0D7590FFC2922097147F147E00126E
:100D510011333097FD7F147E00121133756C022020
:100D610096147F147E001211333096FD7F147E009D
:100D7100121133756C062095147F147E0012113305
:100D81003095FD7F147E00121133756C0A20941486
:100D91007F147E001211333094FD7F147E001211F6
:100DA10033756C0E7590FFC2912097147F147E00ED
:100DB1001211333097FD7F147E00121133756C03CD
:100DC1002096147F147E001211333096FD7F147E1D
:100DD10000121133756C072095147F147E001211D7
:100DE100333095FD7F147E00121133756C0B209406
:100DF100147F147E001211333094FD7F147E001293
:100E01001133756C0F7590FFC2902097147F147E7B
:100E1100001211333097FD7F147E00121133756C6F
:100E2100042096147F147E001211333096FD7F1436
:100E31007E00121133756C082095147F147E001208
:100E410011333095FD7F147E00121133756C0C2027
:100E510094147F147E001211333094FD7F147E00B0
:080E6100121133756C10AF6C27
:010E69002266
:1010BD001A523F065B4F666D7D077F6FBF86DBCF94
:0C10CD00E6EDFD87FFEF4076793800313A
:100FBB00C2A5EF14B408005054900FD275F003A4DF
:100FCB00C58325F0C5837302101202100E021006A2
:100FDB00021002020FFA020FF6020FEE020FEAC224
:100FEB00A28002D2A2C2A3C2A48022C2A28002D239
:100FFB00A2D2A3C2A48016C2A28002D2A2C2A3D242
:10100B00A4800AC2A28002D2A2D2A3D2A474522D6F
:0F101B00F8E6F5807F017E00121133E4F58022A4
:101107005389F0438901C28DD28C758CFC758A6630
:07111700D2A9D2AFC2B92238
:10081E00020BDFE86480F8E933E83360110460F01E
:10082E00ED33EC337009E8FCE9FDEAFEEBFF220440
:10083E0060DED3EB9FEA9EE99DE8C2E78CF0C2F73B
:10084E0095F0400CE8CCF8E9CDF9EACEFAEBCFFB07
:10085E00120BAA85D0F05804700320D5B3E80470AB
:10086E00075002B2D5020BE992D5EC0460F7E4CC46
:10087E00C0E0C398F8603B94186008400DD0E0FBD0
:10088E00020BC1E4FBFAC9FC8028E830E406E4C997
:10089E00FBE4CAFCE830E305E4C9CACBFCE8540724
:1008AE006010F8C3E913F9EA13FAEB13FBEC13FC2F
:1008BE00D8F130F52FC3E49CFCEF9BFFEE9AFEEDD2
:1008CE0099FDD0E0FBEF4E4D4C701222DB03020B74
:1008DE00E6EC2CFCEF33FFEE33FEED33FDED30E7AF
:1008EE00EB020BC1EF2BFFEE3AFEED39FDD0E0FB34
:1008FE0050130BBB0003020BE9ED13FDEE13FEEFDD
:08090E0013FFEC13FC020BC106
:10091600EC4D6011E8497017ED33EC3304600DE4DB
:10092600FCFFFEFD22E933E8330470F8020BDF1208
:100936000BAA58046009E4CC248150062850090209
:100946000BE9284003020BE6C0E0EB4A7044B9808D
:1009560006D0E0FB020BD5EF4E701CBD8008EBFF06
:10096600EAFEE9FD80EBE98DF0A4FEE5F00209FF61
:10097600E9CDF9EAFEEBFFEF89F0A4FCE5F0CE89BC
:10098600F0A42EFFE435F0CD89F0A42DFEE435F079
:100996008067EF4E7005BD80D780C3EF8BF0A4ACA7
:1009A600F0EE8BF0A42CFCE435F0F8EF8AF0A42CE2
:1009B600E5F038FCE433CB8DF0A42CFCE5F03BF8F5
:1009C600EE8AF0A42CFCE5F038F8E433CF89F0A4E5
:1009D6002CFCE5F038CF3400CE89F0A42FFFE5F0EB
:1009E6003EFEE433C98DF0A42EFEE5F039CD8AF043
:1009F600A42FFFE5F03EFEE43DFD33D0E0FB5007BB
:100A06000BBB000F020BE9EC2CFCEF33FFEE33FEC1
:060A1600ED33FD020BC1EF
:100A1C00020BE9EC5D046005E859047003020BDF7E
:100A2C00120BAA580460F6EC4860F2EC7004FDFE60
:100A3C00FF22C860DB2481C85009C39860025006AD
:100A4C00020BE69850CAF582E9294B4A7005AB8235
:100A5C00020BD575F0007C1A7880C3EF9BEE9AEDF3
:100A6C0099400DC3EF9BFFEE9AFEED99FDE842F025
:100A7C00DC23ACF0D0E0FFD0E0FED0E0FDAB822078
:100A8C00E7101BEB60BAEC2CFCEF33FFEE33FEED02
:100A9C0033FD020BC1E803F830E705C0F075F00038
:100AAC00EF2FFFEE33FEED33FD40B830E7C280AAE6
:100ABC0074F8CC6480CCC86480C8F58204604FC3E1
:100ACC00EB9FF5F0EA9E42F0E99D42F0E89C45F080
:100ADC00603C501DE5825FFFE582D313CB5BCBF40A
:100AEC002B5582FB50280ABA002409B90020088033
:100AFC001DE5825BFBE582D313CF5FCFF4C3132FCD
:100B0C005582FF50090EBE00050DBD00010CC3EB54
:100B1C009FF5F0EA9E42F0E99D42F0E89C45F060BA
:090B2C0007CC4820E701B3EC22DC
:100B350075F020800E75F010800575F0087D007E3B
:100B4500007F003392D530D503120CC2EC33401030
:100B5500EF33FFEE33FEED33FDEC33FCD5F0ED2244
:0E0B6500E5F0247EA2D513CC92E7CDCEFF2280
:100B7300EDD2E7CD33EC3392D524814006E4FFFE7A
:100B8300FDFC22FCE4CFCECDCC24E0501174FF80D9
:100B9300EDC3CC13CCCD13CDCE13CECF13CF047076
:070BA300F030D5DE020CC2A8
:100BAA00E9D2E7C933E833F892D5EDD2E7CD33EC91
:070BBA0033FC5002B2D5220A
:100BC100EC30E7100FBF000C0EBE00080DBD000495
:100BD1000BEB6014A2D5EB13FCED92E7FD2274FF41
:100BE100FCFDFEFF22E480F8A2D574FF13FC7D809A
:030BF100E480EFAE
:03000000020F2FBD
:0C0F2F00787FE4F6D8FD75816C020F7627
:100BF40075F008758200EF2FFFEE33FECD33CDCCB8
:100C040033CCC58233C5829BED9AEC99E58298403A
:100C14000CF582EE9BFEED9AFDEC99FC0FD5F0D617
:100C2400E4CEFBE4CDFAE4CCF9A88222B800C1B941
:100C34000059BA002DEC8BF084CFCECDFCE5F0CB7F
:100C4400F97818EF2FFFEE33FEED33FDEC33FCEBB8
:100C540033FB10D703994004EB99FB0FD8E5E4F973
:100C6400FA227818EF2FFFEE33FEED33FDEC33FC60
:100C7400C933C910D7059BE99A4007EC9BFCE99A54
:100C8400F90FD8E0E4C9FAE4CCFB2275F010EF2F99
:100C9400FFEE33FEED33FDCC33CCC833C810D70799
:100CA4009BEC9AE899400AED9BFDEC9AFCE899F8D4
:0E0CB4000FD5F0DAE4CDFBE4CCFAE4C8F92267
:0E0CC200C3E49FFFE49EFEE49DFDE49CFC2243
:100CD000EB9FF5F0EA9E42F0E99D42F0E89C45F07A
:010CE00022F1
:100F3B0002000EE493A3F8E493A34003F68001F2BE
:100F4B0008DFF48029E493A3F85407240CC8C333B7
:100F5B00C4540F4420C8834004F456800146F6DF86
:100F6B00E4800B010204081020408090108BE47E7B
:100F7B00019360BCA3FF543F30E509541FFEE4937B
:100F8B00A360010ECF54C025E060A840B8E493A342
:100F9B00FAE493A3F8E493A3C8C582C8CAC583CA6D
:100FAB00F0A3C8C582C8CAC583CADFE9DEE780BE25
:0110D9000016
:00000001FF
